:020000041000EA
:1000000000B5324B212058609868022188439860DF
:10001000D860186158612E4B002199600221596106
:100020000121F02299502B49196001219960352056
:1000300000F044F80222904214D00621196600F024
:1000400034F8196E01211966002018661A6600F04E
:100050002CF8196E196E196E052000F02FF8012189
:100060000842F9D1002199601B49196000215960AB
:100070001A491B48016001219960EB211966A021F2
:10008000196600F012F800219960164914480160C1
:100090000121996001BC002800D000471248134993
:1000A000086003C880F30888084703B5996A0420EC
:1000B0000142FBD001200142F8D103BD02B5186610
:1000C0001866FFF7F2FF186E186E02BD00000240BE
:1000D000000000180000070000035F00212200005C
:1000E000F4000018222000A00001001008ED00E03C
:1000F00000000000000000000000000074B24E7A12
:1001000000200420F7010010C3010010C5010010F9
:10011000C1010010C1010010C1010010C101001097
:10012000C1010010C1010010C1010010C701001081
:10013000C1010010C1010010C9010010CB01001065
:10014000CD010010CD010010CD010010CD01001037
:10015000CD010010CD010010CD010010CD01001027
:10016000CD010010CD010010CD010010CD01001017
:10017000CD010010CD010010CD010010CD01001007
:10018000CD010010CD010010CD010010CD010010F7
:10019000CD010010CD010010CD010010CD010010E7
:1001A000CD010010CD010010CD010010CD010010D7
:1001B000CD010010CD010010CD010010CD010010C7
:1001C00000BE00BE00BE00BE00BE00BE00F04BF888
:1001D000103800BEF2EB8871A4280510C82805105D
:1001E0003402001090A31AE700202149086006C8D5
:1001F00081F3088810471F48006800282FD10DA4FC
:100200000ECC002902D000F012F8F9E71A491B4A77
:10021000002000E001C19142FCD1194988471949E9
:1002200088471949884700BEFDE701C901C29A42C3
:10023000FBD37047C8280510C0000020981E00207E
:10024000A04605100000042000000420A046051070
:1002500000100420001004200000000070470B482C
:1002600004F0BAFA0047EFF30580C0B2704700000F
:1002700008ED00E0000000D0981E0020C4FF01201F
:100280000D28001085030010452900105756000066
:1002900006005250ABB36053486B04100600525036
:1002A000861C0302586B0410060052505422A29D73
:1002B000686B041005005250DE65F468A046051016
:1002C000F8B5C04610B5064C2378002B07D1054B76
:1002D000002B02D0044800E000BF0123237010BDB2
:1002E000B02100200000000030640410044B10B561
:1002F000002B03D00349044800E000BF10BDC046F6
:1003000000000000B42100203064041010B506F095
:10031000F9F810BD7047C04630B50F2387B00022F2
:100320000021002000F07AFA02AC00F06DFB0F21F2
:100330000F200F230F2200F071FA22000C4B0094C3
:1003400023CB23C21B78684613700D236A460193A2
:10035000002300215375002200F06AFB0098A042A0
:1003600003D00299013105F055FF07B030BDC046FA
:100370003064041010B5024806F056FD10BDC046AA
:100380007CFE0120F8B5CE46474680B500F076FDEC
:10039000802600230124274D760008C5200005F0A3
:1003A000A9FBEE21890505F05AFB234905F057FB0F
:1003B00005F010FC013401C5B442EFD14B2000F030
:1003C000D5FC9620400000F019FC0F2300220021EC
:1003D000002000F023FA00F017FBFFF797FF00F072
:1003E000FDFB814600F046FD00250024134E144F0E
:1003F000306000F0F3FB80464B464444E41A092C7D
:100400000BD933680A3C3B6000F034FD30602800B3
:10041000FFF780FF0135092CF3D800F003FC00281A
:10042000FBD1FFF779FFC14600F0ECFB00F000FCC8
:10043000DFE7C046D8E40120DB0FC940C0E401205B
:10044000CCE40120F0B557464E464546DE46E0B5C1
:10045000F02705883F032C0184463C4039482C4353
:100460002D0683B004402D0F5E1E002B2BD00F23D2
:10047000012938D09C46230C1B030193324B98462C
:1004800023409A46138819009B4663469943C9B294
:100490000F2D1FD05B4658461B013B4003432948A4
:1004A00003402A489B4681464046E31A6B434B442F
:1004B0001B095B4418401B0C01431B0319431180AB
:1004C0000232013EDED203B0F0BCBB46B246A946C2
:1004D000A046F0BD53461943019B194311800232D7
:1004E000013ECFD2EFE718498A46118808009843A9
:1004F000C0B281460F2D0DD00801384008430100DD
:10050000104801408846641A10496C438B465C448D
:10051000240944445146250C0C4049460C43022111
:100520008846C44461462D032C4314800D88054938
:100530002C013C402C432D0902320C401D40013E51
:10054000D3D2C0E70F0F0F000F0F000007070700FF
:10055000F0B557464E464546DE464D4CE0B563691C
:1005600027699B46B946E369266A9C46D944626A74
:100570004E4485B0B444904602936346019343448D
:1005800005009A460020AB4216D9216B00291AD1EA
:10059000A36A0393AF421ED93900280204F076F90A
:1005A000039B43431F0AE36A002B34D14346002BCD
:1005B00001D045453FD8F8B205B0F0BCBB46B246C5
:1005C000A946A046F0BD280004F060F9A36A6D1AA0
:1005D0000393AF42E0D8A94505D8AE4240D9A369FC
:1005E00064211802DAE7A36964211802802604F066
:1005F0004DF97600331A9946E81B5946000204F07B
:1006000045F94B465843039B000A361A73431F0AA9
:10061000E36A002BCAD039F01DF8E66A310004F015
:1006200035F97608636A891B98467F1816D4642FBB
:10063000BCDD6427BAE7E81AFFF78AFF0400380038
:100640005146684304F022F953460700581B5146AF
:10065000604304F01BF9C019C0B2ADE70027A5E75D
:10066000019B0027AB429ED9A81B0299000204F00F
:100670000DF90137A369FF373F1A6421180204F00E
:1006800005F94743039B3F0A7B431F0A8BE7C0469C
:1006900084220020F0B54E464546DE465746E0B57A
:1006A000594C85B06368A6689846002E4CD12568E1
:1006B0006B1C266923606369E2699A46B3469446D7
:1006C000236AD3445B44009363449946676A029269
:1006D000B9440193A94518D9216B002923D1A36AF4
:1006E0000393AE4227D93100280204F0CFF8039BD0
:1006F00043431E0AE36A002B4AD1002F01D0BD42BA
:1007000055D8FF21F2B2314001E0002100223F4BD9
:1007100040461A7000F04EFB05B0F0BCBB46B24636
:10072000A946A046F0BD280004F0B0F8A36A6D1AEF
:100730000393AE42D7D8AB4510D8009BAB424AD901
:10074000A36964211802D0E7E16825680029AFD0C9
:10075000280004F09BF84643B044A9E7A36964214C
:10076000180204F093F880235B009B461B1AA81B19
:1007700051460002009304F089F8009B58435B4601
:10078000060A9E1B039B73431E0AE36A002BB4D028
:1007900038F060FFE76A390004F078F87F08C91B79
:1007A000676A8E1915D4642EA7DD6426A5E7E81BB9
:1007B000FFF7CEFE040030004946684304F066F8B7
:1007C0004B460600581B4946604304F05FF8861903
:1007D00097E7002691E7019B0026AB4200D889E706
:1007E000009B0299E81A000204F050F80136A36950
:1007F000FF36361A6421180204F048F84643039B7A
:10080000360A73431E0A75E784220020BCFF0120CC
:100810000022014B1A6070478422002010B500F0BE
:1008200063F9014B188010BDB8FF0120054B026829
:100830001B68D31A0360044B0A681B68D31A0B6049
:100840007047C046D0E40120D4E401200300F0B595
:100850005746DE4645464E46203BE0B5D800C01818
:10086000364B85B01B68364A1F181B5C1268009314
:10087000344B01921968344B7F1A9B46334B013736
:10088000B8460C009A460F00314A126843461D5D77
:10089000002D08D05B461B689C4204DB2D4909688B
:1008A0005B189C4211DB0134FB1DA342EEDA944637
:1008B000009B013363441900254B196005B0F0BC5F
:1008C000BB46B246A946A046F0BDFF20009BD6B26B
:1008D000D11810408142E6DD019B02941F689B689D
:1008E00067439C461C4BBF1899467F0067444B46A4
:1008F0001B68834215DC54462468A4466344834243
:100900000FDD6BB2002B0CDA144B3A001B68002190
:10091000039313480123039CA0470D4B1A68009BC7
:10092000D11801366D00F6B23000EDB202378E42BA
:10093000DDDB044B029C1F68B5E7C046F0120020C7
:1009400040640410C8E40120BC220020EC12002006
:10095000C4E40120E8120020B8220020E4120020A4
:10096000B8FF0120F0B5C64600B588B007900691E3
:1009700007A806A905920493FFF758FF1B4B05AA89
:100980001B6806A903931A4B07A81B680293194B0F
:100990001B680193184B1B68009304AB00F0D0F860
:1009A000164B1D68069B2C685C43079B9C46AB68F6
:1009B00064449C46049B64005A1E64440492002BC9
:1009C00010D00F4B0F4E98462200059B0021404649
:1009D0003768B8472B685B00E418049B5A1E0492E2
:1009E000002BF1D108B080BCB846F0BDE812002061
:1009F000EC120020BC220020B82200204064041029
:100A0000B8FF0120E412002010B5054B054A064945
:100A100006481B68126809680068FFF7A3FF10BD4D
:100A2000E8120020EC120020BC220020B822002096
:100A3000F0B54546DE4657464E46E0B5050087B060
:100A4000059105A804A90492FFF7F0FE30CD059B9F
:100A50001F4E04991F4F6519984633603960AC42A8
:100A60002AD01D4B9B461D4B9A461D4B994606E0CE
:100A700043460831013439603360A5421CD02378E5
:100A80000A2BF5D05B461B680822039353461B686C
:100A900002934B461B680193124B1B68009330680E
:100AA000082300F031F8002802D02078FFF7CEFEAE
:100AB00001343968A542E2D14346083139603360D8
:100AC00007B0F0BCBB46B246A946A046F0BDC04642
:100AD000C4E40120C8E40120E8120020EC12002048
:100AE000BC220020B822002010B5F02412022401FC
:100AF00014400F220240FF20224309031B010A4336
:100B00001840104380B210BD30B504000598039D15
:100B1000844665440020A54211DBA418039A944240
:100B20000DDB069C049AA44662448A4207DBC9187E
:100B3000049B049AC817DB0F91425841C0B230BDE4
:100B4000F0B5079D059FAC4604681568BC4465195F
:100B5000069E654500DD6546BC4200DA3C002C1B64
:100B6000E543ED172C401460089C0A68A5191C6821
:100B70001419AC4200DD2C00B24200DA3200A21A95
:100B8000D443E41722401A600368BB4200DA3B00FA
:100B900003600B68B34200DA33000B60F0BDC0465F
:100BA000A022074BD205D258064B196801238B406F
:100BB000134204D0044A13600022044B1A70704799
:100BC0000C040000802200200C240050BDFF0120F6
:100BD00010B5FFF75FFD012010BDC04610B501F054
:100BE00007FB002905D0FA220023920003F090FEB3
:100BF00010BDFA21890003F049FEF9E710B501F0B4
:100C000073FA10BDD021012209064B681B0A1A4253
:100C1000FBD1D021012209064B681B0A1A42FBD0E6
:100C20007047C046014B18787047C046BDFF012091
:100C30000B4B1A78002A12D1A020C005844609491E
:100C400001321A700A684B6889685343DA0FD21868
:100C5000054B52101B689B0163441960DA617047B1
:100C6000BDFF0120F412002080220020F0B5CE4606
:100C7000474680B5354B89B004000D0018683449EB
:100C8000984605F0A9FC80235B020493C0231B0354
:100C90000693030080270833C2011B0313432D4A28
:100CA000FF0513403B4305930123060099462900A5
:100CB0002000009307220133079705F077FD264BAC
:100CC00029000493069B20000393039A234B1340AF
:100CD0000693234A079B03931A40224B134307931F
:100CE0000022C02305F0DCFCC02229002000C02324
:100CF00005F018FD069B072003939B009B081F43EC
:100D000043461968184B06979C4661444B1E99410F
:100D1000063100F09DFC43461968134B06209C46A3
:100D200061444B1E9941063100F092FC320004AB45
:100D30002900200005F07CFD4B46AB4022681343A0
:100D4000236009B0C0BCB946B046F0BD0013002016
:100D5000D0640410FFFFFF9F00010200FFFFF5C1F8
:100D6000E0830FFC071810000000E0AF10B504F09E
:100D7000C1FE0B4904F05FFE0A4905F055F80A4B25
:100D80000A491C6804F06BFEFC21890504F050FE42
:100D900004F00AFF6040064B0004000C186010BD10
:100DA0000000C842333333408400054000FF7F47D2
:100DB00084100540F0B5C646264B00B51E680400F9
:100DC00030000F0004F096FE011C234804F033FEAF
:100DD000051C200004F08EFE011C281C04F02BFED4
:100DE000804604F0E1FEC5B2280004F089FE011C33
:100DF000404604F01AFE8321C90504F030FE04F0D9
:100E0000D3FE2D01154A3304C0B21B0C0543956671
:100E10003800536704F06EFE114904F00CFE1149CE
:100E200005F002F8071C20000F4B70430F491D68A6
:100E300003F02CFD04F05EFE391C04F010FE04F0FB
:100E4000B3FE000468400A4B000C0004186080BC2C
:100E5000B846F0BD04130020286B6E4D000005401D
:100E60000000C8426666E63F70000540102700009B
:100E700070100540D0231B0658687047F0B5DE4659
:100E800057464E464546002288218024E0B5174B40
:100E9000174889B058509A671A5104341A511032C1
:100EA0005850DA670F3A9A670C20843900F0D0FB6B
:100EB000104B114A1B6811481B041B0C136005A939
:100EC00007AB06AA00F008FB002803D10B490C4829
:100ED00001F054FD079A0699059800F0C1FAD02355
:100EE0001B0600240126172798460EE00000054047
:100EF000FFFF0000840005408410054090D00300EF
:100F0000446404100134202C13D03500A5402F4236
:100F1000F8D00521280000F09BFB33004246AB408F
:100F20000121936228000022013400F0A9FB202C4B
:100F3000EBD1D0231B060126022798461F3C350023
:100F4000A5402F4208D00521280000F081FB330086
:100F50004246AB40536293610134202CEFD105F03F
:100F60003BFD1F211A2000F073FB002200211A20F4
:100F700000F086FB00211A2000F09AFB9C239B4680
:100F8000FC4BFD4D98465B4642460026EA504046E3
:100F900098225946103BEE509A460833EE50AE5018
:100FA00068500120814610274B4650460C396F503F
:100FB0002B508C397E3800F04BFB88234046802232
:100FC000E850AE67AE500432AE50E8504846EF6786
:100FD0000421A8670C3000F03BFB4346584698229A
:100FE0002B50504694232E50EE505B46AE50424656
:100FF0009021EA504A466F502A50D02580268C39DD
:101000007D3800F025FBDD49DD482D0605F058FC54
:101010000521042000F01CFB6F626420AF61B60064
:1010200001F062F86F610521092000F011FB052134
:1010300005206E6200F00CFB6C620121062000F0BE
:1010400007FB0121072000F003FB6B464A466C6159
:1010500007A91A77CA48AC61AE6145F0A9F96C617D
:10106000962001F041F836236A4607A91377C44851
:10107000AC610122AE6145F09BF9C24B012219001F
:101080006E61BF48984645F093F935236A466C6116
:1010900007A91377BA48AC610122AE6145F088F91F
:1010A000B94F012239006E61B54845F081F9B2238C
:1010B0006A466C6107A91377B148AC610122AE6141
:1010C00045F076F9391D05226E61AD4845F070F99D
:1010D0003A236A466C6107A91377A948AC610122DB
:1010E000AE6145F065F90122A8496E61A44845F05A
:1010F0005FF926236A466C6107A91377A048AC61A3
:101100000122AE6145F054F9012241466E619C48CE
:1011100045F04EF9B7236A466C6107A913779848E2
:10112000AC610122AE6145F043F9012298496E613C
:10113000934845F03DF9BB236A466C6107A91377D4
:101140008F48AC610122AE6145F032F9012291492C
:101150006E618B4845F02CF9C0236A466C6107A983
:1011600013778748AC610122AE6145F021F9012275
:1011700089496E61824845F01BF9C2236A466C6159
:1011800007A913777E48AC610122AE6145F010F9E2
:10119000012282496E617A4845F00AF9C3236A4602
:1011A0006C6107A913777648AC610122AE6145F006
:1011B000FFF801227A496E61714845F0F9F8C423BD
:1011C0006A466C6107A913776D48AC610122AE6174
:1011D00045F0EEF8012273496E61694845F0E8F880
:1011E000D0236A466C6107A913776548AC61012278
:1011F000AE6145F0DDF802226B496E61604845F052
:10120000D7F8C6236A466C6107A913775C48AC61BE
:101210000122AE6145F0CCF8012264496E61584864
:1012200045F0C6F8E0236A466C6107A91377544875
:10123000AC610122AE6145F0BBF80E225C496E61E3
:101240004F4845F0B5F8E1236A466C6107A913776A
:101250004B48AC610122AE6145F0AAF80E22554917
:101260006E61474845F0A4F821236A466C6107A9DE
:1012700013774348AC610122AE6145F099F8112320
:101280006A466C6107A913773D48AC610122AE61E3
:1012900045F08EF829236A466C6107A91377384810
:1012A000AC610122AE6145F083F86C61642000F00E
:1012B0001BFF2A236A4607A913770C37AC6101226A
:1012C000AE612F4845F074F8042239006E612C4855
:1012D00045F06EF82B236A466C6107A913772848FE
:1012E000AC610122AE6145F063F8042239006E6101
:1012F000234845F05DF82C236A466C6107A91377F3
:101300001F480122AC61AE6145F052F86C610820C3
:10131000AC616E6100F0E0F980235B00264CAB62AB
:10132000264D21682868FFF7A1FC012005F044FB49
:10133000234B2D6818602368224C0200C10218005C
:10134000A54200D00830204C04332140A024E405FD
:10135000A4469B000024EB180125C60331431B4E15
:101360000E43910161440C604B602B0093401A00C6
:101370002EE0C046FFFF00000000054000127A008A
:1013800000C0034078640410BC6404107C64041042
:101390008064041084640410886404108C64041055
:1013A0009064041040C704109464041098640410FE
:1013B0009C640410AC640410D8E8012000130020E1
:1013C0008022002000002050FF7F00FF1900400015
:1013D0001A4B8C600E611A60012101F0DBFC0B20BE
:1013E000174901F0F1FC01210B2001F0D3FC154B52
:1013F000154A5C66DC661C675A67102204219A66EF
:101400000B205D6600F024F9104B114A1B681B0C81
:101410001B04136000F0FAFC0E4B0F4A02930F4BB3
:101420000194009301235B4200F0F4FC09B0F0BC8E
:10143000BB46B246A946A046F0BDC04604240050B3
:10144000A10B001000000540FFFF000070000540E8
:1014500070100540981E002018FCFFFFD10B0010F3
:10146000F0B583B005000E00140000F0D9F9002893
:1014700001D003B0F0BD154F01223B0001210097C0
:10148000053001F099FA33002A0000940121104838
:1014900001F014FE21002800714303F0F7F9040065
:1014A0000C4B002200930221042001F085FA230056
:1014B000002201210094052001F07EFA3B00022267
:1014C00000210097062001F077FAD2E7006CDC02D9
:1014D00000800240001BB700F0B5DE4657464E467E
:1014E0004546E0B5070085B00420039301910292C0
:1014F00001F04AFCFA21890003F0C8F93223824640
:10150000FF33994686005644B6014F4B4F4AF318B5
:10151000072493420ED901235B429C465346E14483
:10152000F61A4B46002BF0D100205DE0002900D1D7
:1015300086E0062421003000614303F0A7F98742CA
:1015400042D0631E9846012CE5D01D006543300053
:10155000290003F09BF987424DD0A31E9B46022C25
:101560004FD02D1B2900300003F090F987424AD05C
:10157000E31E9B46032C61D02D1B2900300003F095
:1015800085F9874243D0231F9B46042C45D02D1B51
:101590002900300003F07AF9874240D0631F9B4650
:1015A000052C42D02D1B2900300003F06FF9874233
:1015B0003DD04346052B3FD03000E91F03F066F9CC
:1015C0008742B3D00624B5E70029BAD1A0464246E7
:1015D000012073019B1B9B009E19019BF6001E605E
:1015E000029B1C60039B1A6005B0F0BCBB46B24670
:1015F000A946A046F0BD0029E9D0A31E9B46022CB7
:10160000AFD1012496E70029B2D1D846DFE70029FF
:10161000FBD0231F9B46042CB9D103248AE7002961
:10162000F3D0631F9B46052CBCD1042482E700291C
:10163000EBD04346052BBFD105247BE7022479E795
:1016400001239846C3E7C04680E5F9FF804F1200AA
:10165000094A830094464022634410B51C68C000C8
:101660006240C02414408022520113431C60034B8B
:101670009C466044416010BD04C0014000400140F0
:101680000A4B80009C4604236044002901D00C23AF
:101690000821002A00D10B00026853400C221A4096
:1016A00080235B01184302607047C04604C00140BC
:1016B000084B80009C466044002905D080239B0194
:1016C0001843402303607047C0239B011843402305
:1016D0000360F8E704C001400123D02283401206D2
:1016E00093629361094A83009446402263441968D7
:1016F000C0004A40C02111408022520113431960AA
:10170000034B9C46052360444360704704C001407E
:1017100000400140EFF3108072B6034A1368002BBB
:10172000FCD0BFF35F8F70472C0100D0BFF35F8FF9
:101730000022024B1A6080F3108870472C0100D001
:1017400070B5EFF3108C72B60D4D2B68002BFCD0EA
:10175000BFF35F8F0724CB08C618C05C01230C4081
:10176000A3401C000440034207D103433370BFF37E
:101770005F8F2C608CF3108870BD100001F0FEF8B4
:101780002C0100D0F8B54746CE46884680B5EFF329
:10179000108C72B6214D2C68002CFCD0BFF35F8FEB
:1017A0009A422CD8D4080727055D06190124174052
:1017B000BC402C421FD007210127894609E0D408EC
:1017C000055D06194C4639001440A1400C00294221
:1017D00011D001329342F2D201204042BFF35F8F19
:1017E00000220E4B1A608CF3108800280FDBC0BC5F
:1017F000B946B046F8BD2C4310003470EEE7BFF395
:101800005F8F00232B608CF31088012040424346F9
:10181000002BECD0089801F0B1F8C0462C0100D0A4
:10182000024B18688007C00F7047C04600C00640D2
:101830000021044B044ABFF35F8F02C39342FAD1E5
:101840007047C046000100D0800100D0044A1078E3
:10185000431CDBB2172B00D9102313707047C0460E
:1018600008130020F8B5040006200D0001F08CFAE2
:10187000002844D02A4B2B49E21853425A41802376
:10188000DB039C469205284B62441A60274B1A6082
:1018900010008B689843FBD1214B8021E3185A42FA
:1018A0005341234A5B0049009952062001F06CFA2B
:1018B0002900C00002F0EAFFC30921D1402701211D
:1018C000260080256162A36200232C36AD013543DA
:1018D0002B60062001F058FA3900800002F0D6FF94
:1018E0006023E26A53406E221A4080235B01334337
:1018F0001A60104B236310232B600D3BA364F8BDCB
:101900000D4A934203D900230C4F0D49D8E77F229B
:101910001040013040089F0119003F180300CFE735
:101920000080FCBF00C0004000E0004000F000402C
:10193000B0FF012001030000FEFF0000C0FF3F00D8
:10194000FFFF000083680B4810B584466144624481
:10195000090112019A18591854684B6801209C42D9
:1019600001D802D00020C0B210BD12680B689A42A4
:10197000F9D8F7E7FFFFFF0F10B508000B690C005F
:101980009847002802D02068616810BDE0600021FF
:101990000020FAE70A4B1968EFF3108072B60A6864
:1019A000002AFCD0BFF35F8F1B68BFF35F8F00225C
:1019B0001A6080F3108840BF002000217047C046A5
:1019C0009CFF0120F8B557464E464546DE46E0B539
:1019D00099460CAB1C780DAB1B78060090469A46D6
:1019E0000768002C11D1BC7B002C42D065003B68FD
:1019F0002D19033D59194B78BB73002B00D1FB7394
:101A000000238B704B700B7004E065003B682D1950
:101A1000033D5919B2682A4B94464246E3181B010C
:101A200063441A604A465A600A9A9A600B9ADA60CE
:101A300000238B704B700B707B7B9B46002B2BD055
:101A400022005946B8687B6898473A68002816D043
:101A50005B4658465B005B445519033BA870D118A0
:101A6000D35C002B00D06B705B460C707B73A3457E
:101A700013D0F0BCBB46B246A946A046F8BD5B46B3
:101A80005B005B44033BD3189C705119525D002AE4
:101A900000D05A705B460B707C7342464B46307DDB
:101AA00000F030FC051E06D05346002B03D1210068
:101AB000306800F06DFE0E9B002BDAD01D70D8E769
:101AC000FFFFFF0FF0B5DE464E4657464546002362
:101AD000E0B58DB00A936B4B8200D3580B909946BA
:101AE00000239B464B46079300F082FB079C0600B1
:101AF0000F006268EFF3108572B61368002BFCD0FC
:101B000022000794BFF35F8F2468637B9946002B04
:101B100067D092685C4B90464B441B019844434607
:101B20001A685B6810001900801BB94100295FDD4D
:101B30000B9800F0E7FB00230026984600279A4602
:101B4000079C6368BFF35F8F5A461A6085F310885D
:101B50005346002B08D10028C6D10DB0F0BCBB46BF
:101B6000B246A946A046F0BD0A9B414618024B4624
:101B70001843D047089009916268EFF3108572B658
:101B80001368002BFCD00794BFF35F8F0899099A64
:101B9000002A48DB114303D0079B1B69002B5DD152
:101BA000079B1B68D97B002907D04A005218196887
:101BB0008C4649466244033A51704A46DA734B46B2
:101BC000079A013BD168CA5C0132CA545B46079A46
:101BD00013615368BFF35F8F5A461A6085F310880C
:101BE00082E700230026984600279A460020A7E7B0
:101BF000002901D100289BD10021200000F04AFDDE
:101C000043461E685F689B68079A9A464346DB68AE
:101C10009846D3684B44013B1B780A931B0203434D
:101C2000136100208CE72369002BB9D033003C00FE
:101C30005B1A94411A002300A74219D89F421BD077
:101C4000594604910121039149460291414601916F
:101C5000514607980091FFF7B5FEB7E700F0C8FAC4
:101C6000089A099B06000F0092197B419942E5D919
:101C700001225242D317E3E79642E1D901225242B0
:101C8000D317DDE784FF0120FFFFFF0FF8B55746AC
:101C90004E464546DE46E0B5404D81468A466A6876
:101CA000EFF3108872B61368002BFCD0BFF35F8F80
:101CB0002E68B47B002C39D0670033683F19033F8E
:101CC000DB195A78B273002A00D1F273A968344A3A
:101CD0008C464946A2181201624411605146516077
:101CE000304991600021D160997059701970737BEF
:101CF0009B46002B35D022001900B06873689847C6
:101D00003268002820D05B4658465B005B44D719F8
:101D1000033BB870D118D35C002B00D07B705B46BE
:101D20000C7073735C451DD0002626E06B68BFF312
:101D30005F8F1C6088F3108801204042F0BCBB46D6
:101D4000B246A946A046F8BD5B465B005B44033B38
:101D5000D3189C70D119D25D002A00D05A705B460E
:101D60000B7074734A465346287D00F0CBFA061E6A
:101D7000DAD02100286800F00BFDEB681B19013B4D
:101D800019786B68BFF35F8F00221A6088F31088A0
:101D90000020002ED2D108022043CFE70C130020F0
:101DA000FFFFFF0F9519001010B5124C6368002B50
:101DB00004D00A21104800F033FB10BD23000F4A65
:101DC0001021206800F084FB032000F005FA0320B6
:101DD00000F008FB03200A4900F04EFAFFF736FD39
:101DE000084B9C46032360442375074B80006060CA
:101DF000DC60DEE70C1300209CFF01204519001079
:101E0000C51A00104000003484FF012000487047CC
:101E10000C130020F0B54E464546DE465746E0B569
:101E200085B01099804689461100194300D1EAE037
:101E3000D81706005640340006005E400100350009
:101E4000241A8D41494640460A6088600F9A0E98D0
:101E50004B604A61086100F0CBF902000B00A41846
:101E60005D4100940195A94200D9DAE000D1D4E0A7
:101E7000002300259B4643465A68EFF3108A72B64A
:101E80001368002BFCD0BFF35F8F43461E68B47B02
:101E9000002C00D189E063001B19033B1A00944613
:101EA0000393336863445A78B273002A00D1F27303
:101EB000414689685F4A8C4600980199A218120130
:101EC0006244106051605C4991604946D1605A4655
:101ED0009A705A701A70777B002F00D183E022002D
:101EE0003900B068736898473268002800D16FE005
:101EF00003997B00DB195118033B8F70D018D35C1A
:101F0000002B00D087E004707773BC4200D16BE0F7
:101F100043464246DB6852681B19013B1B78BFF3FE
:101F20005F8F594611608AF31088002D0CD101256E
:101F30001B021C434B462800DC6005B0F0BCBB46CE
:101F4000B246A946A046F0BD484603699847051E1B
:101F500001D10024EEE74B461E685F6833003B4327
:101F600065D0002F0BDA0098019902000B00921B3C
:101F7000BB41994213D822D0009201937BE700F035
:101F800037F902000B00B6185F4100960197B9427D
:101F900005D800D06FE700998A4200D86BE701238B
:101FA0005B42DC170093019465E75B68BFF35F8FCA
:101FB0001C608AF31088012400256442BAE7009966
:101FC0009142D9D901235B42DC170093019452E777
:101FD0007B00DB19033B0398D3189C701118125C2B
:101FE000002A15D10F7074734346187D009A019B27
:101FF00000F088F9051E00D18AE7434621001868E1
:1020000000F0C6FB84E7012400250122002319E724
:102010005A700F70E7E74B7075E700998A4200D855
:1020200026E701235B42DC170093019420E700259B
:1020300000247FE7FFFFFF0F79190010F0B50400BF
:102040000D0006267642F717C64636196F4100B5D1
:102050008F4213D810D000F0CBF832003B00121A98
:102060008B41002B14DC002B37D02900200000F01E
:10207000F3F880BCB846F0BD8642ECD900260027B4
:1020800000F0B6F832003B00121A8B41002BEADD5B
:1020900030003900FFF7FAFD0028E6DB0023984600
:1020A000BC460F4A0F4F7B6A9C4504D8B96A8E42E2
:1020B000DBD99C45D9D11168EFF3108072B60B685B
:1020C000002BFCD0BFF35F8F1368BFF35F8F4146D7
:1020D000196080F3108820BFE5E7002AC5D0D7E754
:1020E0009CFF01200040054070B5060000F080F81C
:1020F000FA2204000D00002330000021920003F0BA
:1021000077FC001969418D4205D802D0FFF796FF90
:1021100070BD8442FAD901204042C117F6E7C0469B
:10212000F0B5D6464F464646C0B5EFF305833F228D
:10213000134018001038EFF3108C72B6204D2A6847
:10214000002AFCD0BFF35F8F0122110081401D4C9B
:10215000884661631C4917000E788A463100C140E9
:102160000F400A4209D1BFF35F8F2F608CF31088B4
:10217000E0BCBA46B146A846F0BD14498200646A84
:1021800051588C420FD3124BD25843469E4353466C
:102190001E70BFF35F8F00232B608CF31088002A22
:1021A000E6D09047E4E70B4A9B00904643441A6808
:1021B0001A60BFF35F8F00232B608CF31088D7E782
:1021C000280100D000400540C1FF0120A0FF0120F0
:1021D000F4FE0120D03F054010B50100024A03483B
:1021E000FFF7AEFA10BDC04658680410BFFF0120CB
:1021F000034B596A0A00986A596A8A42FAD17047B1
:102200000040054070B504000D00124A536A1900E1
:10221000966A536A8B42FAD13000190024184D4156
:10222000AB4211D80ED02B000A494A6A9A42FCD31D
:1022300007D1084A02E0516A994202D1916AA1424B
:10224000F9D370BDA642EED9012301246442E517FB
:102250005B42E9E700400540064A536A9942FCD8D0
:1022600007D1044B02E05A6A914202D19A6A824233
:10227000F9D370470040054070B504000D00EFF33E
:10228000108672B61A4A1368002BFCD0BFF35F8F1A
:10229000002D1BD0200000F08FFD164981420AD08E
:1022A000200000F091FD0121200000F073FD0123CA
:1022B000A340114A1360114BA400E550BFF35F8F98
:1022C00000220B4B1A6086F3108870BD0B4BA200E6
:1022D000D5500122A2400A4920000B7893430B708D
:1022E000044900F09BFD0021200000F053FDE5E7CC
:1022F000280100D02121001038600540F4FE0120A3
:10230000C1FF0120F0B54F46D6464646C0B507008E
:102310002F4C616A0D00A66A616AA942FAD18B420C
:1023200008D805D00120E0BCBA46B146A846F0BDA9
:10233000B242F7D9EFF3108A72B626480168002935
:10234000FCD0BFF35F8F0125BD402349204C884658
:10235000097889462943C9B28C46414660460870CF
:10236000391D1E48890065630A51B9000B50216A66
:102370000020294219D0616A0800A66A616A814278
:10238000FAD18B4219D801D1B24216D8CC451DD012
:102390000F4B1F201D625D6301230740BB40104AA5
:1023A0001E38136043464A461A70BFF35F8F0022FF
:1023B000084B1A608AF31088B5E70020BFF35F8FDF
:1023C0000022044B1A608AF31088ACE70120ECE786
:1023D00000400540280100D0C1FF0120A0FF0120DE
:1023E00080E200E0EFF3108C72B60A490B68002B14
:1023F000FCD0BFF35F8F01238340074A0748136275
:1024000002789A430270BFF35F8F00230B608CF356
:1024100010887047280100D000400540C1FF01200E
:10242000024B9C46614489000160704740000034C3
:1024300010B50400FFF70AFA01002000FFF7F0FFD3
:10244000FF23A380BFF35F8F10BDC04610B504000B
:10245000FFF7FCF901002000FFF7E2FF01235B42D8
:10246000A380BFF35F8F10BD70B505001400160088
:10247000002915D00C00002A12D080686B6898479C
:10248000296800280ED073009B196200033B1219C3
:10249000CB18033A9C7088188A5C002A15D1067004
:1024A000200070BD63001B197200033B9219CB180A
:1024B000033A9E7088188A5C002A02D104703400A6
:1024C000EEE75A7004703400EAE75A700670E7E7E6
:1024D00030B583600023CCB2437301330473426090
:1024E0008373C4730D000068012C06D9421C0133AC
:1024F000DBB2137003329C42F9D1FF2129404B001B
:102500005918002340180338437030BDF8B5CE4643
:10251000474606000C0080B5002907D04D0003682F
:102520006D18033D5A195778002F04D12000C0BC04
:10253000B946B046F8BD7900C91903398846434405
:102540005978894600215970517073683A0021000A
:10255000806898473368002814D042469A189470CF
:1025600059195B5D002B00D053700F70270049464E
:102570003000FFF7CBFF390002003000FFF774FF97
:102580000400D3E7424641465D19AF709A185B5C80
:10259000002B00D06B701470E9E7C046F0B55746C9
:1025A0004546DE464E46E0B50D006B0001685B19FE
:1025B000DF1E0400C85D83B00192CA1900284CD008
:1025C00043001B18033BCB185E78B446002E16D18F
:1025D000019E002E3ED0E67B002E04D073009B1996
:1025E000CB18033B5D70E57300282FD10023537097
:1025F00003B0F0BCBB46B246A946A046F0BD72008F
:102600006244033A89184A78904600224A709146FB
:102610005A70010032002000FFF726FF4346824631
:10262000002B07D05B0021684344033BCB185A784A
:10263000002A16D1424651462000FFF715FF2168B7
:10264000019BCA19002BC6D10028CFD043001B180C
:10265000033BCB1800219970C8E7019B002BBAD12E
:10266000C4E7500080180338091848788346484664
:102670004870587041462000FFF7F6FE59468046E4
:102680002000FFF743FF414602002000FFF7ECFE69
:102690008046CFE7F0B557464546DE464E46E0B5A4
:1026A00083B00191457B04006B0000685B19DF1E5D
:1026B000C15DC21900294ED04B005B18033BC31803
:1026C0005E78B446002E18D1019E002E40D0E67BE5
:1026D000002E04D073009B19C318033B5D70E57393
:1026E000002931D1002328005370617303B0F0BC7E
:1026F000BB46B246A946A046F0BD72006244033A0A
:102700008018427890460022427091465A7020000C
:102710003200FFF7A9FE43468246002B07D05B003C
:1027200021684344033BCB185A78002A17D142460C
:1027300051462000FFF798FE019B01002068C21956
:10274000002BC4D10029CDD04B005B18033BC3182C
:1027500000209870C6E7019B002BB8D1C2E750005B
:1027600080180338091848788346484648705870DE
:1027700041462000FFF778FE594680462000FFF7CB
:10278000C5FE414602002000FFF76EFE8046CEE700
:1027900070B5040000292CD0437B8B422ED00568F5
:1027A00048004018033828188278002A21D05300A6
:1027B0009B18033BEA5CEE188A4202D11BE0002A18
:1027C00008D053009B18033BEB185A788A42F6D185
:1027D00042785A7000230122837043702000FFF773
:1027E000DDFE617B02002000FFF73EFE60730120EA
:1027F00000E0002070BD43783370EBE70122190040
:10280000FFF7CCFE60730120F4E7C046F8B5304A0C
:10281000304B31491A60314A314B1A6014008B68D1
:102820009C43FBD12F4D304EB54208D2013E761B62
:10283000B60808CD984723000134B342F9D100F01F
:1028400045F92A4A264B1A60234A9368DB43DB0189
:10285000DD09002BF9D14022254B264C264F9A67E3
:102860005A671A67DA66BC4215D2013F3F1B002641
:10287000FF0806E0FFF7EAFD0834731CBE420AD0E9
:102880001E0063792000002BF4D1FFF7D1FD08343E
:10289000731CBE42F4D1194E194CC022A1683000FD
:1028A00003F0A2FCA660FEF7C3FF00F0EBFBFFF70E
:1028B0007BFA144C144EB44208D2013E361BB608C3
:1028C00008CC98472B0001359E42F9D1F8BDC0468F
:1028D000BFCDFBFE00E0004000C00040FE7F3C009A
:1028E00000F00040601E0020701E0020FFFFFF016E
:1028F00000F00140581E0020601E00200000002053
:1029000000ED00E0701E0020981E002000BEFDE7D4
:10291000094A03001068002805D00849C3188B42F3
:1029200007D81360704706480449C31810608B42EB
:10293000F7D901204042F5E778FF0120000004208C
:10294000C4FF012000BEFDE710B50C0082B01900E5
:10295000002A09D0064B019200930200230005488B
:1029600001F0F4FE00BEFDE7034B1A00F3E7C0469A
:102970007C6804108C680410249904100FB400B50E
:10298000084883B003F026FD049B002B07D005A95F
:102990001800019101F0FAFE034803F01BFD00BE90
:1029A000FDE7C046BC68041024A5041010B501481A
:1029B000FFF7E4FFCC680410F0B54546DE46574605
:1029C0004E46E0B583B001920C9A050088469A42C3
:1029D00000D974E01A0E93461E02300000235946B7
:1029E0000C9A01F095FF374B6C009C466419A400CB
:1029F000644463680700834200D260602B1FDBB22F
:102A00009946012B35D9C02380229B012343120113
:102A10001A602D4BAD0059599A46002905D05869C6
:102A200001F034FF01300138FDD1019A23685201D1
:102A30005340E0221A4080235B0123431A604A4638
:102A4000012A2FD9802380229B01234312011A607F
:102A5000300000233A005946676001F059FF5346A1
:102A60005851012003B0F0BCBB46B246A946A0466F
:102A7000F0BD4346012BC6D1C02303229B01234353
:102A80001A60023AA3681A42FCD0019A23685201E4
:102A90005A40E0231A4080235B0123431A600A4A0C
:102AA000AD00924642462168514003220A401A6016
:102AB000012243469A40A3681A42FCD0C2E7002094
:102AC000D0E7C0460080004004FF012030B50C2054
:102AD00083B000F047FBFEF7A3FE00280ED0944B16
:102AE000944A1A605A609A60DA601A615A619A616F
:102AF000DA611A62904A5A6203B030BD8F4CA06707
:102B000000F038FB01228E4B1A60636C012BFCD164
:102B100003228C4B1A60894A936B012BFCD102244F
:102B20000121894A89480533009400F0C7FA05233A
:102B3000874A01218748009400F0C0FA864B5A6802
:102B4000FF2A02D8802252005A608022784C7D4BA6
:102B500021691201804D1A60002905D0606901F0D9
:102B600095FE01300138FDD1E0217B4B02201A682F
:102B70001140802252012A43116019684840032104
:102B80000140116004219A681142FCD0802280210A
:102B900092012A4309011160802252005A606F4B52
:102BA00023616F4B5968FF2900D85A600321644A9A
:102BB0006B4B116002399A681142FCD0E0201A6810
:102BC0001040802252011A431060186848400321C7
:102BD00001400220116062498A681042FCD08022C4
:102BE00092011343802212011A6080225D4B520031
:102BF0004A6063615C4B5968FF2900D85A608022A3
:102C00005A4BE1691201584D1A60002905D06069DC
:102C100001F03CFE01300138FDD1E02252490B6841
:102C20001A4080235B012B431A60802380229B0182
:102C30002B4312011A6080223E4B52004A60E3612E
:102C40004B4B5968FF2900D85A608022494B216AB2
:102C50001201474D1A60002905D0606901F016FE87
:102C600001300138FDD1E02241490B681A40802330
:102C70005B012B431A60802380229B012B431201AE
:102C80001A60802380225B004B602A4BD2022362B1
:102C9000394B5968914200D25A608022374B616AA1
:102CA0001201354D1A60002905D0606901F0EEFD72
:102CB00001300138FDD1E0222F490B681A408023F2
:102CC0005B012B431A60802380229B012B4312015E
:102CD0001A608023DB024B60174B6362284B5A68F3
:102CE000FF2A02D8802252005A608022254BA16917
:102CF0001201234D1A60002905D0606901F0C6FD5C
:102D000001300138FDD1E0221D490B681A408023B3
:102D10005B012B431A60802380229B012B4312010D
:102D20001A6080235B004B600E4BA361E4E6C04653
:102D300004FF0120006CDC021BB700000080004093
:102D40003CB0004030B00040002F68590080024085
:102D500000389C1C00C0024030800040001BB700BF
:102D60003C800040405973075480004054B00040FC
:102D70006080004060B000406C8000406CB000405B
:102D80004880004048B00040014B8000C058704768
:102D900004FF012001238340002904D0034A13606B
:102DA000034A13607047034A1360FBE780E200E0C8
:102DB00000E100E080E100E0024B10309B68800001
:102DC000C058704700ED00E070B50D00EFF31086BD
:102DD00072B60F4A1368002BFCD0BFF35F8F0D4B08
:102DE00010309B6884001B590B4A934203D09D42CC
:102DF00001D0FFF7DBFD074B9B681D51BFF35F8FD1
:102E0000BFF35F8F0022024B1A6086F3108870BDFB
:102E1000240100D000ED00E0CD010010F0B5DE4649
:102E200057464E464546E0B50C0083B0EFF3108A96
:102E300072B65A4A1368002BFCD0BFF35F8F102282
:102E4000914681444A46564B96009B689D59554B86
:102E500098469D4205D0A54216D0534FEB1B2F2B11
:102E600014D94F4B9B689D51BFF35F8FBFF35F8FAA
:102E700000224A4B1A608AF3108803B0F0BCBB46AC
:102E8000B246A946A046F0BD1D00EAE701238340F3
:102E90009B465A46454B1B681A4000925A46444B83
:102EA0001A60BFF35F8FFDF7DEF90190002803D0B1
:102EB000814501D0FFF77AFD01232A009A431300D0
:102EC000DB1B5B4141495943090D93689C4208D182
:102ED0005AE043001B189B00FB189868A04211D0D1
:102EE0001A00062010560028F3DA009B002B05D0AC
:102EF0005A46304B1A602D4B1A60B2E75A462C4B9B
:102F00001A60AEE706201856002821DB420011188F
:102F100089007C188846A1689960E179D9710621F9
:102F20006156997100291FDBA488F91A64052415DC
:102F300044440919E0240905490D240221439980DC
:102F400012181D4B9200BF181A781870BA71CCE78E
:102F5000019800280BD1FF30907118489080164AD4
:102F6000107811709871C0E7BD210902E7E7144A93
:102F70001449D21A083A5002400D0143998012496F
:102F800052080A43DA80B0E70620105613000028E2
:102F9000BCDA019A002AEAD14546E0E7240100D0D4
:102FA00000ED00E0CD0100103413002000E100E04E
:102FB00080E100E080E200E0C0FF012000BDFFFFF3
:102FC0006E13002000F0FFFF00F8FFFFAAAA000028
:102FD000F8B5012504000543FDF745F9EFF3108C22
:102FE00072B6214A1368002BFCD0BFF35F8F1F4ECF
:102FF0002200B7681E49521A5241214B53431B0D00
:103000008200B8585BB2A8421CD006228A569A4267
:103010001CD012228A569A4222D01E228A569A42E6
:1030200020D02A228A5603209A4210D0114A1178C1
:103030001370A171BFF35F8F00220B4B1A608CF3EA
:103040001088F8BDB1680C488850EFE700204200B6
:10305000121892008918FF228A71084A8A80E5E7CF
:103060000120F4E70220F2E7240100D000ED00E0A7
:1030700034130020C0FF0120CD01001000BDFFFF70
:10308000AAAA0000F0B500220324FF278026200012
:103090003D00094B11009C461040C0008540A143F3
:1030A00061440B680132AB43350085402B430B6014
:1030B000202AECD1F0BDC04600E400E0F0B5C646E1
:1030C000040000B50C2090461F000E0001F0DEFB4E
:1030D0004101091A8D01691AC90009188901404680
:1030E00001F0D4FB069B3F041A0323681743002B0F
:1030F00022DB184B184DE21853425A4180235B01E2
:103100009C461203154B62441A60154B1A6011005D
:10311000AB689943FBD1C022231D92011A4321239E
:103120002660A06013602368002BFCDA0823E760A8
:10313000136080BCB846F0BD3F2322681340B34201
:10314000D7D1A3681B051B0D8342D2D1E368002FA2
:10315000CFD1EEE70040FDBF00C0004000E00040DE
:1031600000F000408023024A9B000343D362704773
:1031700000800540AA23064A1B0113602F2305493E
:10318000D360054B19605368002BFCDA7047C046CA
:103190000040024000B0FA00006002409A4200D2B3
:1031A000885470477047C046F8B557464E46454666
:1031B000DE46E0B599460A9B07009A460D9B884675
:1031C000934615000B9E9B0710D10C9B9E420DD27F
:1031D0009D1B14000E005D4422004B46013431005B
:1031E0002020B847A542F7D1B0460B9E002E27D02D
:1031F000444675195346AA1B013E985D21004B4673
:10320000B847002EF6D123002C0098460D9B9B0753
:103210000FD55B46E51A0C9BAB420AD94646984649
:1032200022004B46310020200135B8470134A84523
:10323000F6D82000F0BCBB46B246A946A046F8BD71
:103240002C00E3E7F0B54F464646D646C0B584B0FD
:1032500098460EAB1B78129F994694460D9C109B86
:10326000119EBA0725D4002E4BD19C4200D3BFE05B
:1032700001223A4092461F2C00D9B8E00C9A551E04
:10328000302201E0202C03D001342A55A342F9D882
:103290005246002A0DD0A6420BD9202C44D00C9ABD
:1032A000551E302201E0202C3ED001342A55B44274
:1032B000F9D1FA064DD57A053FD4002C39D10F9BB0
:1032C000102B00D179E00F9B022B00D18AE0302334
:1032D0000C9A012413704B46002B3FD02D230C9ADF
:1032E000135501340C9B62460093039743460296A4
:1032F0000194FFF759FF04B0E0BCBA46B146A846B6
:10330000F0BD012215003D40AA463A422FD04A4660
:10331000002A02D10C323A4200D0013E9C42BAD27D
:103320001F2CABD9202E27D92024FA06DAD57A050E
:1033300003D4A3422DD0A6422BD00F9B102B32D00A
:10334000022B20D0202CCDD030220C9B1B191A70C0
:103350000134202CC6D04B46002BBFD17B070DD4A7
:103360003B07BFD520230C9A13550134BAE79C4282
:103370009FD21F2C00D881E720249AE72B230C9A98
:1033800013550134AEE7202CACD00C9B1B19013433
:103390003AE0631E012C92D00F9A102A2AD0022AFA
:1033A0002FD01C00D0E7BB060ED4202C9AD00C9B4B
:1033B0001A19013478231370C4E7BB060DD478239F
:1033C0000C9A01241370BFE7202C00D18AE7582201
:1033D0000C9B1B191A700134B4E758230C9A012472
:1033E0001370B1E70C9A603301241370ACE720240A
:1033F00000265EE7023CBA06E9D40C9A12191C00BA
:10340000D8E70C9A9246534462221A709AE7C04653
:1034100010B5002800D110BD02F0CEFFFBE7C0467A
:10342000F0B5DE4657464E464546E0B59BB09B4656
:10343000249B89469846259B0B900C924046424619
:1034400019009A4601F0F9FC002800D0D8E00122CA
:1034500040465146774B524201F0EAFC002800D02A
:10346000CEE0012240465146734B524201F0CAFC65
:10347000002800D0C4E0002200234046514601F05D
:10348000C1FC002800D0B9E1424653460A92099394
:103490008023289ADB001A400E92289A1A4201D102
:1034A000062326930A9A099B1600134300D0C7E00F
:1034B000289B002500261B0500D49BE100230D93CB
:1034C000269A0D9B9A4200DC9FE1D01A431E269358
:1034D0008023289ADB001A430023002728920D93AB
:1034E000279B0024BB4200D9DC1B0223289A1A40E8
:1034F0000E92289A134203D07B427B415B421C40D0
:103500000D9B002B07D00A9809992A00330001F07F
:1035100010FC0A900991002200234046514601F018
:1035200071FC002805D0802000068446099961447A
:103530000991289A414B0B9D13400493269B0A9AAC
:103540000293099B03940092019349465B4628002D
:103550000C9A00F08BF90400002F62D0289B220007
:1035600098061F23C0179843631C984649465B463C
:103570006530A8470D9B0025DA179C18DB0F9A468B
:103580005440013F01E0202D13D00AAA94461F2386
:10359000200063440A2101355E1901F077F93031CA
:1035A000317020000A2101F071F926000400092E73
:1035B000E9D805230693002304930A330393534663
:1035C00005970B9F029312AB009342465B46494618
:1035D00038000195FFF736FE0E9B0400002B20D02B
:1035E0000C9BC51A279BAB421BD91E0022005B46D1
:1035F000494620200135B8470134AE42F6D810E0E4
:10360000289B42460493279B49460393269B0B988D
:1036100002935346009201935B460C9A00F026F900
:10362000040020001BB0F0BCBB46B246A946A04631
:10363000F0BDC046FFFFEF7FFFFFEFFFFFF7FFFF8B
:10364000734B099F9C467800400D604401F008FCD4
:10365000704A714B01F08BFB704A714B01F060FBBB
:103660003B03704A1B0B1A4304000D00300011008D
:103670006D4B002201F04BFB6C4A6D4B01F077FB68
:1036800002000B002000290001F04AFB01F000FCC1
:103690000D9001F0E5FB674A674B04000D0001F057
:1036A00066FB0022654B01F03BFB01F0F1FB644A35
:1036B0000600644B2000290001F059FB0400300093
:1036C0000D000F9601F0CCFB5F4A604B01F04FFB01
:1036D00002000B002000290001F019FB02000B0082
:1036E00006000F0001F043FB320004000D003B0018
:1036F0003000390001F014FB002210901191544B5E
:103700002000290001F015FB0022524B01F008FBBC
:1037100002000B002000290001F00BFB00224E4BA1
:1037200001F0FEFA02000B002000290001F001FB6D
:103730000D008021040032003B000020C90501F08B
:10374000E6FA02000B002000290001F0E9FA02006D
:103750000B001098119901F0ECFA0022314B01F0A6
:10376000DFFA3E4B0F9C9C4664440022230501F087
:10377000FEFA05000E0002000B000A98099901F0FC
:1037800041FB00280AD00D9B2800013B31000D931E
:103790000022304B01F0CDFA05000E00C6270D992E
:1037A0002B0063318F42BF4128997F4204370905BE
:1037B00000D495E6334300D182E6099C284A2100D3
:1037C000284B0A9801F02CFB002808D00022210089
:1037D000254B0A9801F016FB002800D070E6269BC6
:1037E000002B00D17CE60E9B5A1E9341269AD31AD9
:1037F000269375E6002304270D9371E643460A934A
:1038000080231B065344099342E6002326935FE678
:1038100001FCFFFFFB799F501344D33FB3C8608B7B
:10382000288AC63F0000F03F0000F83F61436F6305
:10383000A787D23F71A379094F930A400000E03F68
:103840001655B5BBB16B0240EF39FAFE422EE63F8A
:1038500000002C400000244000001840FF0300003E
:103860002D431CEBE2361A3F80842E41F0B54E46C4
:10387000DE4657464546E0B597B09946209E219FC3
:10388000229B8346984607910C923B003200300001
:10389000390001F0D2FA002800D0A9E1012230005D
:1038A0003900CA4B524201F0ADFA002800D0E1E0E5
:1038B000012230003900C64B524201F0B9FA00280B
:1038C00000D0B7E0002230003900C24B01F0B0FA5E
:1038D000002800D099E0002230003900BE4B01F0F2
:1038E00091FA002800D090E0002200233000390037
:1038F00001F088FA002800D0B1E000230D93249B4A
:103900005B0501D40623984608AB9C461722002489
:1039100030234146624404E0013413550139202C20
:1039200001D00929F8D888463000390001F0B0FAF2
:103930004346DA00A94B05009B181A685B68089299
:10394000099301F08DFA02000B003000390001F0FC
:10395000DEF9089A099B01F00AFA0A900B9101F02E
:10396000BBFA824601F078FA02000B000A980B9924
:1039700001F0CDF900229A4B0A900B9101F058FA10
:10398000002800D1C0E001239C46E244504601F0EB
:1039900063FA02000B000898099901F039FA00282F
:1039A00002D000239A4601354346002B6AD008AB6B
:1039B00017269C4608956644554614E001235B4251
:1039C00043440A2128009A4600F060FF0134303158
:1039D0003719397028000A2100F058FF092D00D846
:1039E000D0E0D0460500202CE8D10EAB984603234A
:1039F000249A1340012B00D196E02023249A0193AE
:103A00000392239A434602921EE0249B5846049355
:103A1000239B00960197039343460C9A02930799C0
:103A20004B46FFF7FDFC17B0F0BCBB46B246A946BB
:103A3000A046F0BD249B5B070ED40322694B24995A
:103A40000192039123990291009358464B460C9A98
:103A50000799FFF7A9FBE6E70422634BEFE73B007A
:103A600032000020002101F052F9012306000F006E
:103A70000D9344E7249B0393239B02930423019318
:103A80005A4BE1E7280001F0EBF902000B0030008F
:103A9000390001F03CF9524B002206000F0001F002
:103AA000B1F90EAB984600280AD100223000390047
:103AB0004B4B01F0BDF9002802D1EB0700D50135D1
:103AC000202C94D008AA94461723280063440A2186
:103AD00001341E1900F0B2FE3031280031700A2185
:103AE00000F0ACFE051EEBD10323249A1340012BFA
:103AF0001BD0202C00D180E70D9B002B35D02D2230
:103B00004146631C0A5579E700220A980B99344B09
:103B100001F078F9002800D046E75346002B51D138
:103B200001239C46E2443FE72024239B002BE0D066
:103B30000D9B002B03D1249A0C33134202D0239BFC
:103B4000013B2393239BA342D3D908AB9C46172266
:103B500030236244202C00D14FE7239901341355C0
:103B60008C42C6D0202CF8D147E7249B5B0724D495
:103B7000249A2300120700D440E720224146013353
:103B80000A553BE75746089D202C00D12DE722001F
:103B900030214046002F09D00132B154202A00D1F3
:103BA00023E7D3431B191B18002BF5D10EAB984606
:103BB0002E234146541C8B5482E72B224146631C22
:103BC0000A551BE7DB0700D4EEE6A9E7FFFFEFFF8E
:103BD000FFFFEF7F65CDCD4165CDCDC1D06A04102B
:103BE0000000E03FD8680410DC680410E8680410A6
:103BF000249B0393239B029303230193004B23E70E
:103C0000E4680410F0B5DE464E4657464546E0B53A
:103C10009FB01C00289B91460993C94AC94B8B460B
:103C200008901A60002900D118E2002320789A46F3
:103C3000002800D11AE226001D005C460AE02A0096
:103C40006F1C4B46089D2100A8473D000136307887
:103C5000002870D02528F2D110239B46083B9A46B5
:103C6000043B9846023B00219C46721C10781600CB
:103C70000300203BDBB2102B03D8B34F9B00FB5853
:103C80009F460300303B092B32D900230A932A2890
:103C900068D0002398462E283ED00300683BDBB254
:103CA000122B1CD8A94A9B00D3589F4601230132EE
:103CB0001943DBE7634601321943D7E74346013234
:103CC0001943D3E75B4601321943CFE7534601322C
:103CD0001943CBE780235B0070781943013603005A
:103CE000253BDBB2532BAAD8994A9B00D3589F4659
:103CF00000270300B800C01901364000C01833780F
:103D000030381A00303A0700092AF3D90A9018000F
:103D1000002398462E28C0D180237078DB001943F9
:103D20000300303B721C092B00D8A1E12A2800D1E6
:103D3000B2E11600B1E7A346AA462C00D14503D84C
:103D400001235B424B449A464B465246594600205B
:103D5000089DA84720001FB0F0BCBB46B246A9464C
:103D6000A046F0BD099B40CB0A96002E03DB50789D
:103D70000993561C8DE72838014370420A90099335
:103D80005078561C85E7782800D1DFE1582800D10B
:103D90004CE26F2800D14FE3622801D100F030FCE3
:103DA00010230A009A430B92692801D000F0A9FC65
:103DB0000A230C934B0500D5D0E10B9A8023110008
:103DC0009B0019408B461A4200D0A1E280231100CB
:103DD0005B0019408A461A4200D0B6E313005B0626
:103DE00000D5EDE2130009991B0601D400F076FC22
:103DF00008C91BB2D8171A18424092B209919346CB
:103E0000DA0F1292002B09D1802310220B99DB00CC
:103E10000B4091430B91002B00D0E4E20B9A6123FD
:103E2000920600D541230EA91F228C46DBB26244C4
:103E30000A3B5F461395A34655460C9CB2460D932C
:103E400016000AE03033DBB201357355A74200D2C9
:103E5000EDE2202D00D1EAE207002100380000F059
:103E600015FDCBB20929EDD90D9A94466344DBB216
:103E7000EAE780239B007078194301362FE77078BA
:103E8000682800D1CDE180230136194327E77078F7
:103E90006C2800D1BFE180235B00194301361EE787
:103EA000462800D19BE10722099B049107339343E5
:103EB0000A9A19000392424602920CC9089800928D
:103EC000019309912A004B462100FFF7CFFC0136F0
:103ED0000500BCE62A006F1C4B46089D21002520EA
:103EE000A84701363D00B2E68B0700D4ADE1099B3F
:103EF0002A009A466B1C9846534601CB21009A46ED
:103F0000089F4B46C0B2B8470A9B9C466544012BAC
:103F100000D886E2089B4746B04626004C469946A4
:103F20003A002300013731002020C847AF42F7D1C3
:103F3000A1465346340046460993013687E6C046FB
:103F4000053C001080FF0120F06804103469041063
:103F500080690410099B04CB9B4643460992002BC1
:103F600000D1C6E013789C46002B00D1BDE3434648
:103F7000013B099A0133D0180A9F130001E08342E4
:103F800003D05A780133002AF9D1099A0A979B1A6B
:103F90000B9380230A00DB001A400C92194204D0D4
:103FA0000B9B434501D943460B9302231A000A4059
:103FB0000D920B4200D187E16046002800D168E1F4
:103FC0000C9B002B00D10DE1A844C246099B57462B
:103FD0005B1B9846089BB2462A0026004C46994631
:103FE00009E023003100551CC8474346585D0028AE
:103FF00000D126E12A009742F3D1A1463D003400CA
:1040000056460D9B002B00D043E15B4601360993D9
:104010001DE6099B1A0008CA9246002B48D02122AF
:1040200011438B460EA884461F2161440995002246
:104030000F27A4460D0002E0202A0CD00B003C0004
:104040001C4020003730092C00D807380132A85412
:1040500019090F2BF0D86446099D32E0DC4B20781B
:10406000089300239A46002800D0E4E5002465E682
:10407000434606000A9F9800C0180132400080198C
:104080001678030030003038303B0928F3D930006F
:10409000984616000A9700E6099B023604CB904624
:1040A000D2434046D2171040804609933078F4E559
:1040B0001022080090431132104383460022490524
:1040C000B0D55B460693082305934346049310231B
:1040D00003930023029316AB019200932A004B46F0
:1040E00021000898FFF7AEF8534605000136099302
:1040F000ADE513789C46002B00D1F7E202235B422A
:1041000037E7202302009A43472A04D180231B016A
:10411000194302239843452801D12023194307223C
:10412000099B0491073393430A9A1900039242466C
:1041300002920CC908980092019309912A004B46FB
:104140002100FFF76DF90136050080E510230C937F
:104150000C230A009A430B924B0503D501230B9ABB
:104160009A430B92692800D127E6642800D124E6FF
:104170000B9A802311009B0019408B461A4200D0F5
:1041800066E1802311005B0019408A461A4200D084
:1041900039E213005B0600D53CE113001B0600D496
:1041A000A6E2099B04CB1204120C934609935B46CA
:1041B000002B00D09AE10B9A1033110099430B9118
:1041C000520500D492E100239A460B9B06930A9B6A
:1041D0000593434604930C9B039300230CE1202397
:1041E000194360E6099B0A9A5B1B98464B46914629
:1041F0001F00B2462600089C2A003B003100A04761
:1042000043460135585D0028F6D14A463400B94688
:1042100056460A92F5E6C0239B00B0781943023651
:104220005DE5C023B0781943023658E50C230A0037
:104230009A4314331A43103B0B920C934B058DD4C5
:1042400096E7A14634005646DBE60A9A012A00D8D2
:1042500053E26B1E9F18089BB04626004C469946B9
:104260002A002300013531002020C847BD42F7D184
:10427000A14634004646099B3A0001CB21009846EE
:104280007D1C4B46089FC0B2B84743460136099390
:10429000DDE40B9B0A9AA8469A4200D8B5E69446FC
:1042A0006544ED1A089B4746B04626004C469946A1
:1042B0003A002300013731002020C847AF42F7D130
:1042C000A14634004646A0E60B9A0A99531C914237
:1042D00000D814E24B199B1A1F00089BB246260017
:1042E0004C4699462A002300013531002020C8475A
:1042F000BD42F7D10A9BA14601330B93099B3400C1
:104300001B7856469C466046002800D058E67CE65E
:104310000722099B07339343013294469C4462462B
:104320005F6809921A68FB171093119310981199FE
:10433000030053400E930B007B400F9394460E9A5C
:104340000F9B121A8B410E920F93FB0F6246129332
:1043500000233A439B463DD00B9A6123920600D539
:1043600041230022DBB20EA90A3B8C4692460D93F4
:1043700043461F3262441395159655460E9E0F9F75
:10438000A24690460C9C14930CE03032D2B24346C5
:1043900001355A55BB4500D18AE1202D00D18AE173
:1043A00006000F00220000233000390000F0B0FAB0
:1043B000D2B2092AE9D90D9B9C466244D2B2E6E703
:1043C000FF23099904C913401A00099117E5C04653
:1043D000A53100100B9A1033110099430B9152052F
:1043E000BAD500239A460B9B06930A9B0593434636
:1043F00004930C9B0393129B02935346019316ABB9
:104400002A00009321004B460898FEF71BFF013657
:1044100005001CE4FF22099B02CB11408B46099347
:10442000C5E65346454609930136FFF710FC56464C
:104430005C46AA46139DD6E708230C930B910B9973
:10444000642800D084E60B9B5B0500D586E6B4E4C7
:104450000722099B07339343013294469C446246EA
:1044600009921A685B6810009B4613005A46134372
:1044700007D10B9A1033110099430B91520500D5C7
:10448000A1E60B9A6123920600D541230022DBB2FC
:104490000EA90A3B8C4692460D9343461F32624456
:1044A0005F461295A34655460400B24690460C9EC0
:1044B00013930DE03032D2B2434601355A550023F2
:1044C000BB4200D100E1202D00D100E104000F002B
:1044D000320000232000390000F01AFAD2B2092A73
:1044E000E8D90D9B9C466244D2B2E5E70B9A612362
:1044F000920600D54123DBB20EA90A3B1F228C464F
:104500000D93230062445C461295170055469B4666
:10451000B2460C9E08E03033DBB201357B55B44225
:104520000ED3202D0CD004003100200000F0AEF995
:10453000CBB20929EFD90D9A94466344DBB2ECE77C
:1045400056465C46AA46129D3FE6099B1A0008CAD9
:10455000D91713925A184A409246DA0F1292002B3A
:1045600008D1802310220B99DB000B4091430B9163
:10457000002B2BD10B9A6123920600D541230EAA62
:104580001F279446DBB20A3B0D9567445D460993AD
:10459000A3465446B2460C9E08E03033DBB20135E8
:1045A0007B55B4420ED3202D0CD0040031002000E6
:1045B00000F06CF9CBB20929EFD9099A944663440B
:1045C000DBB2ECE756465C46AB460D9D0B9B2A00E2
:1045D00006930A9B21000593434604930C9B08987D
:1045E0000393129B013602935B46019316AB009333
:1045F0004B46FEF727FE139B05000993FFF727FBA9
:1046000002230C931AE7099B04CB92461293002ACB
:1046100008D1802310220B99DB000B4091430B91B2
:10462000002B2BD10B9A6123920600D541230EAAB1
:104630001F279446DBB20A3B0D9567445D460993FC
:10464000A3465446B2460C9E08E03033DBB2013537
:104650007B55B4420ED3202D0CD004003100200035
:1046600000F014F9CBB20929EFD9099A94466344B2
:10467000DBB2ECE756465C46AB460D9D0B9B2A0031
:1046800006930A9B21000593434604930C9B0898CC
:104690000393002302935B46019316AB00934B46B2
:1046A000FEF7D0FD129B050009930136FFF7CFFA04
:1046B000B44200D871E6149B54460E960F97AA4652
:1046C0009846159E139D8EE6A64200D8FBE6139BE6
:1046D00056469846AA465C46129D76E508C9D81704
:1046E0001A1842400991FFF78AFB00230B9350E40C
:1046F000099B04CB9346099359E52F00BBE50B9327
:1047000001E6063B0C939AE60EB4012210B585B083
:1047100007AC08CC01000094524204480394FFF710
:1047200071FA05B010BC08BC03B018479D310010E9
:1047300000B583B0009313000A0001000248FFF7A0
:1047400061FA03B000BDC0469D3100100FB410B532
:104750000C4984B006AA08CA0C680392002C0BD03E
:10476000009201220848524202A9A047012004B049
:1047700010BC08BC04B01847180001F02BFE002044
:10478000F5E7C04680FF01201134001010B5094A3A
:104790000300146884B0002C08D001220091064860
:1047A000524203A9A047012004B010BD01F012FE3F
:1047B0000020F9E780FF0120113400100148042196
:1047C000014B184780130020F9470010014B9B68EC
:1047D0001847000080130020142310B5010018882A
:1047E00004331B88984710BD162310B501001888A4
:1047F00002331B88984710BDF8B54746CE4680B5B2
:104800000F1E19D0142399460433040000250126F5
:1048100098464B461888434621681B88984701C430
:10482000431E9841013540420640AF42F1D130006D
:10483000C0BCB946B046F8BD0126F8E7124A936FEE
:104840009B0815D29066D166002905D0FFE7FFE7E7
:10485000FFE7516F106F704704B580210906C2173A
:104860005140002800D0C84341F082FD002104BD22
:10487000F0B5146E556E576F166FFFF7E3FF1466B1
:10488000556657671667F0BD000000D0114A936F58
:104890009B0813D210665166002905D0FFE7FFE799
:1048A000FFE7516F106F704704B5002801D000205A
:1048B000C04341F05DFD002104BDC046F0B5146E5B
:1048C000556E576F166FFFF7E5FF1466556657670D
:1048D0001667F0BD000000D094464E4A926F9208D1
:1048E000624601D230E0C046F0B54A4EB56F6D0861
:1048F000FCD3346E756E776F366F00F025F89446F2
:10490000444A14665566576716676246F0BDC0464E
:104910009446404A926F9208624601D258E0C046DF
:10492000F0B53C4EB56F6D08FCD3346E756E776F85
:10493000366F00F04DF89446364A14665566576750
:1049400016676246F0BDC046002B24DB11D000295B
:104950003EDA00B5C943404200D1013100F038F8D9
:10496000C943404200D10131DB43524200D10133FF
:1049700000BD002AEBD1002801D1002905D000207C
:10498000C90FC90701D1C043410800B541F0B8FCC7
:104990000022002300BD00B500290ADBDB435242A0
:1049A00000D1013300F014F8C943404200D1013175
:1049B00000BDC943404200D10131DB43524200D126
:1049C000013300F005F8DB43524200D1013300BD52
:1049D000002923D1002B18D1002A0CD0BC460D4F42
:1049E00038667A6600210023FFE7FFE7FFE77A6F6A
:1049F000386F67467047002801D00748010000B5AE
:104A000041F07EFC0022002300BD02000B000020CC
:104A100000217047000000D0FFFFFFFF002B00D0F7
:104A2000BDE0130C26D1002AE7D080B4104F3966C0
:104A30007A66FFE7FFE730B4040C7B6F396F1B0425
:104A400023433B66FFE7FFE7FFE7C04684B27B6F87
:104A50003D6F1B0423433B66FFE7FFE7C04600238F
:104A60002C042D0C7A6F386F00196941B0BC704767
:104A7000000000D0F0B594460025140E01D11202BA
:104A80000835140F01D112010435940F01D19200A1
:104A90000235D40F01D152000135D40B0134254F1A
:104AA0007C66254C3C660E0C93B2FFE7FFE7FFE700
:104AB0003C6F6643360C7703BE467343DF0B5B04E3
:104AC000C01AB941130C7343DB18C91ACE086643E8
:104AD000360CB64493B273431F0F1B01C01AB94181
:104AE000130C73431F0B1B05C01AB941860D8F02AF
:104AF0003E436643360C092D24DB520A7243801A6A
:104B00007703460A6643360C16235B1BDE40DF4004
:104B1000BF1964466643821B7046043506330100A4
:104B2000D940A840C01900D30131A24206D20023C7
:104B3000F0BD0000000000D0FFFFFFFF121B01309E
:104B4000F3D3F1E709277F1BFE406446A2B272430C
:104B5000801A00D20139220C7243130C1204821AFB
:104B600099410B007046043513370100F940A84005
:104B7000801900D30131002B02D1A2420AD2F0BD2C
:104B8000013000D30131121BFAD2013BF8D1A2420D
:104B900000D2F0BD013000D30131121BF7E7F0B5B0
:104BA0001C0C00D080E00CB400251C0A04D11B02B0
:104BB000160E3343120208351C0B04D11B01160FCD
:104BC0003343120104359C0B04D19B00960F3343F1
:104BD00092000235DC0B02D192185B4101351C00BA
:104BE000971864410134464F7C66464C3C660E0C77
:104BF000FFE7FFE7FFE7C0463C6F6643360C7703ED
:104C0000BE4697B27743C01B00D20139C01B00D209
:104C100001399FB27743C91BC91B170C77437E0428
:104C2000FF0B801BB941CE086643360C0C2D33DBDD
:104C3000B644120B1F053A431B0B97B27743C01BB8
:104C400000D201399FB27743C91B170C77433E044A
:104C50003F0C801BB941860D8F023E4366432927D6
:104C60007F1BFE400C3D7746AF40BF1930BCA2B25F
:104C7000ABB272437343801A9941220C7243130CF6
:104C80001204801A994102000B000137001BA94150
:104C9000F9D2781E0021F0BD0C277F1BFE4077461D
:104CA0007F0BAF40FF19E0E700245D1C07D0144FD5
:104CB0007D663966FFE7FFE7FFE7FFE73C6F95B2E8
:104CC0009EB265436643401BB141150C1E0C654303
:104CD000664336042F0C3E432D04401BB1419942DC
:104CE00004D202000B0020000021F0BD01D190424F
:104CF000F7D3801A994101349942F2D3F6E70000C4
:104D0000000000D0FFFFFFFF48404140484018B47A
:104D10001B4B5B68FC46019308BD04DF5B50001031
:104D200018B4174B1B68FC46019308BD00DF6550A3
:104D300000109446134A926F920809D2624618B442
:104D40000F4BDB68FC46019308BD0CDF1D530010C0
:104D50000C4AF0B5146E556E576F166F6246FFF72A
:104D6000EEFF084A1466556657671667F0BD18B41B
:104D7000034B9B68FC46019308BD08DFC15100103E
:104D8000B01F0020000000D0FFB55040424050400E
:104D900059404B40594000E0FFB5154F4C00640DA1
:104DA00003D0BC4204D10C0314D80020090D09051E
:104DB0005C00640D03D0BC4204D11C030AD800225D
:104DC0001B0D1B0501264B4009D44B4003D58B42DC
:104DD00000D18242FFBD9942FCD19042FFBD0B43FE
:104DE000DB1803431343F5D0C9434918FFBD000046
:104DF000FF07000000B5FFF7CFFF01D0002000BD86
:104E0000012000BD00B5FFF7C7FF804100BDC046CF
:104E100000B5FFF7C1FF01D9002000BD012000BD92
:104E200000B5FFF7B1FF01D9002000BD012000BD92
:104E300000B5FFF7A9FF804100BD012040054A00F1
:104E4000121804D85A00121801D800207047012007
:104E500070470020704700000021002805D17047EE
:104E6000C1174840401AFAD0C90713B5064B1B6852
:104E700098470CBC441CA2401005120B0349091BA7
:104E800009051943114310BD98FF01201F040000BC
:104E900010B54C00620D8023D218DB00D21A5B05DE
:104EA0007E2A10DD9E3A13DACC170903490819430C
:104EB0005242D140640001341532202A05DAD04034
:104EC0000843604310BD002010BD0846604310BD7C
:104ED000C80FC018013810BD18B4044B5B6AFC46FB
:104EE000019308BD24DF495500100000B01F0020C9
:104EF00018B4044BDB6DFC46019308BD5CDF5156D2
:104F000000100000B01F0020C94211D300B54900B5
:104F10004908002200F018F8002904D40022404279
:104F20008A41114600BD80210906002000BD000015
:104F300018B4044BDB6EFC46019308BD6CDF57557B
:104F400000100000B01F002018B4044B9B6FFC46FB
:104F5000019308BD78DF735500100000B01F0020DA
:104F600018B4044BDB6FFC46019308BD7CDFDD55B4
:104F700000100000B01F002018B4044BDB6CFC468E
:104F8000019308BD4CDF895700100000B01F0020BE
:104F900018B4044B1B6DFC46019308BD50DF255827
:104FA00000100000B01F0020132370B51D78012DE4
:104FB00010D00BDD1948FFF717FC194C01008022B7
:104FC000200001F011F9022D01D070BD144C154BD9
:104FD000A364FAE7134B124C23606360A360E360A1
:104FE00023616361A361E36123626362A362E3629D
:104FF00023636363A363E36323646364A364E3647D
:1050000023656365A365E36523666366A366E3665C
:1050100023676367A367E367A364D6E7534400008D
:10502000B01F00202950001007B5604601880A0A09
:105030000230DF2AFAD1C9B2820804D3028840883C
:105040000004104300E00068014A5050039007BD7F
:10505000B01F00200FB403BC0CBCF0B50124E40762
:10506000634000E0F0B50C0DCF0F661E3605891BBE
:10507000640503D3C943404200D30131640D03D01A
:10508000661CF60A07D0E41B00207F00791C890704
:105090008912803C24031D0DDF0F6E1E36059B1BFD
:1050A0006D0503D3DB43524200D301336D0D03D0B2
:1050B0006E1CF60A07D0ED1B00227F007B1C9B07AD
:1050C0009B12803D2D032F1B661B58D4A446202E17
:1050D00046DA20371400BC401D00BD40F240334189
:1050E0002A4380185941CB0F05D0C943C043002241
:1050F00064425041514162464D0D28D10D0D07D1FA
:1051000000281FD0241940414941013A0D0DF9D022
:10511000640006D3013000D30131002C01D14008D6
:105120004000013A0BD4941CE40A04D11205114446
:10513000DB071944F0BDD907204B194300E0D9071C
:105140000020F0BD0029DDD1002CDBD1F0BD013203
:10515000C6074008CD0728434908002EE1D0D9E70B
:105160003C2E29DA203E40371400BC4000D00124F8
:10517000F24014431A00BB401C43D317ACE7AC46C3
:10518000202F08DA20360400B4400D00B540F84066
:1051900039412843A5E73C2F0CDA203F4036040074
:1051A000B44000D00124F84004430800B1400C434F
:1051B000C117EAE710001900002494E70000F07F0F
:1051C000F0B50C0D661E3605891BE60A6405640DF4
:1051D00002D0651CED0A04D0002001210905803CA5
:1051E0002403A4461C0D671E3F05DB1BE70A64056C
:1051F000640D02D0651CED0A04D0002201231B05BA
:10520000803C24037740644497B484B296B27443DC
:10521000070C7E43150C6F4380B26843361802D3E7
:10522000012000043F183004350C00197D418446EC
:1052300088B29AB250430C0C62431F0C7C438EB26E
:105240007E43921902D301263604A4191604170CC2
:105250003618674101BC81B29AB25143040C6243D3
:105260001B0C5C4380B25843121802D30120000487
:1052700024181004130C401863412D185E410020BF
:10528000474106BC88B293B258430C0C6343120CDE
:10529000544389B251435B1802D3012109046418B5
:1052A00019041A0C091862416D1856410020474133
:1052B00018BCF902720D1143F0026A0D1043ED02A1
:1052C0000A0D03D16D1940414941013B124E9B1B10
:1052D0007600B3420ED26D0007D301300026714133
:1052E0006646354301D1400840001B05C918E40754
:1052F0002144F0BD0BDA013306D1013004D1013174
:105300004F0D01D04908F2E7E1070020F0BD01365A
:1053100031050020EBE70000FF030000F0B51C0D95
:10532000671E3F05DB1BE70A6405640D02D0661C9F
:10533000F60A04D0002201231B05803C2403D0255B
:105340002D060026F6432E661E096E66CE0FF61950
:10535000B44649004F0D02D07E1CF60A03D000204F
:105360000021403F3F033E1BB600B444013F7F0590
:10537000C91B49082E6F013676089C02950D2543FE
:105380007543ED137543AD1301356D10F603761BB0
:105390000CB4CC02450D2C43A2B2B3B25A43270C35
:1053A0007B43350C6F43A4B26C431B1902D3012419
:1053B00024043F191C041D0CA4187D4124196D41BF
:1053C000009A91B2ACB26143170C7C432B0C5F4343
:1053D00092B25A43A41802D301221204BF18220425
:1053E000230C52187B41019C6C431B19520ED901AE
:1053F0000A434401A01A81B2B2B2514303145A4382
:10540000360C734387B27743D617D21900277E41F3
:1054100036049B191704160C7F185E417316ED189D
:10542000F301002680337541A90F06D16400690A93
:10543000E8055B0A184309D22FE004229444803324
:105440007541A90AA8059B0A184326D34041494142
:105450002404009A019B0D005543641B4343E41A46
:1054600095B286B27543170C7E43030C5F4392B22C
:105470005A43B61802D301221204BF183204330C67
:1054800052197B4152429C41002C02D4002201302F
:1054900051414008CA071043490802B06246D70785
:1054A0009210084BD218084B9A4203D21205891861
:1054B000C919F0BD0020002A01DC3900F0BD01331C
:1054C0001905F5E7FD030000FE070000624618CA53
:1054D000944600291ADAC01861415B463B415C469C
:1054E000B4405246FA40224344464D4662416B4125
:1054F000904699462B46B3403D41FC401C435246E2
:105500005B46A241AB4192469B467047C01AA141FF
:105510004B463B414C46B4404246FA402243544637
:105520005D4662416B4192469B462B46B3403D41EE
:10553000FC401C4342464B46A241AB419046994633
:105540007047002000217047002200B5203200F093
:1055500010F8080000BD002200B500F00CF8CA17D2
:105560009A4200D100BDD8430121C907414000BD86
:1055700000220B15E5D410B5944600F0A5F81414DC
:10558000013400DA0021CB17134C20476244343A2F
:105590000CD40C2A07DA0400914090405242203289
:1055A000D440214310BDD843D94310BD203207D485
:1055B0000C469440524220321141D040204310BD4D
:1055C0000800C917203203D452422032104110BDC6
:1055D0001800190010BD00008D5500104A00520D32
:1055E000144BD21A13DDFF2A1EDAD205CB0FDB07CC
:1055F0001A43C300400F0903490A084310435B00E4
:1056000001D301D0013070474308FBD2704702D06C
:10561000C80FC00770470A0312130132F8D1420FB6
:10562000072AF5D1012200E0FF22C80F00028018EE
:10563000C00570478003000000210A00002104E03B
:1056400000210A00C11704E00022002306E0C04642
:105650000022CB1758405940C01A994130B5184C18
:10566000A21A002903D1010010D00020203A4C15C5
:1056700012D104D2013A001849414C0DFAD3114C11
:10568000A24204D212058918DB07C91830BDD243E3
:10569000520D00200021F5E703D4013A00184941DA
:1056A000FBD50B324405C00A4D052843C90A6400E6
:1056B00003D0002460416141E1E7E0D34408F8E70A
:1056C00032040000FE0700000A0DCC0F531E1B051C
:1056D000C91A520503D3C943404200D30131520DC8
:1056E00003D0531CDB0A07D0121B00206400611C8E
:1056F00089078912803A1203014BD21A70470000C1
:10570000FF030000023225D40C2A1CDA1125AD1A41
:105710000B002B41083207350600EE4090409140C7
:105720003143F0CC63431A1500235A415543564385
:105730005743BF02F412760576196741ED177F19BA
:10574000801BB94170470C220020C9174900013164
:105750000905DBE70902030E194300025342203218
:1057600008D40C0019419440D840204300225041F5
:10577000514170470800C917203B2032F1D5002065
:105780000021002270470000F0B5FFF79DFF54A4F0
:10579000FFF7B8FF002904DA204C214D00196941B8
:1057A000013A04B4012752A6002201239B0730CE00
:1057B000B446001BA9410BD47E4220361D003D415A
:1057C0001C00B4401600FE40344362416B4101E0CE
:1057D0000019694166460137212FE8D185B29EB292
:1057E000754307147E43190C4F4384B24C43F117A1
:1057F00036190024614109047F183404310C6419FE
:105800007941A40F8800204389178018594104BCAE
:1058100052423E32FFF71DFFF0BD00006BDE73F415
:10582000FD855C2CF0B54F0050D27F154ED001376E
:105830004FD0FFF749FF04B44902C20D11434002A3
:1058400001272BA6B446002200237E4220360D00FD
:105850003D410C00B4400600FE40344344414D41FC
:10586000AE0F05D120002900664630CE121BAB4199
:105870000824A4440137212FE7D189008910121888
:105880004B4180BC17A413CC0137784379437C4348
:105890004F05C912CD17C0196941A702A415CD172C
:1058A000C9196C41DD17801859416C413E22CD1752
:1058B000AC4208D000090E073043090926073143DE
:1058C0002411043AF3E7FFF7C4FEF0BD02490020BB
:1058D000F0BD02490020F0BD0000F0FF0000F07FA5
:1058E000AAB800006BDE1300A3EF0F0021170B0016
:1058F000F34B98BFEC23F319D6104DCDE3FB470EC5
:105900007AB9BC8ADBC18907CC542C021846E10362
:10591000053083E7B029F8011E1FE0874505FE002A
:10592000249E41ACA9807F008117624515E03F00AD
:10593000E610ABA902F81F008858455500FE0F007D
:10594000C4AAA90A80FF070056455501E0FF0300DD
:10595000ABA92A00F8FF010045550500FEFF000035
:10596000AAAA0080FF7F0000551500E0FF3F00005D
:10597000AB0200F8FF1F0000550000FEFF0F000003
:105980000B0080FFFF0700000100E0FFFF030000A5
:105990000000F8FFFF0100000000FEFFFF00000014
:1059A0000080FFFF7F00000000E0FFFF3F000000DD
:1059B00000F8FFFF1F00000000FEFFFF0F000000C7
:1059C00080FFFFFF07000000E0FFFFFF0300000073
:1059D000F8FFFFFF01000000FEFFFFFF00000000D6
:1059E00000000080000000000000004000000000F7
:1059F00051434343C9188C46110C83B24B4310B436
:105A0000040C614392B280B2504362431C041B0CED
:105A1000001910BC59411304120CC01851416144C3
:105A2000704700004840414048400E4B5B681847B3
:105A30000C4B1B6818470C4A936F9B0802D2094B0A
:105A4000DB681847F0B5146E556E576F166FFFF789
:105A5000F6FF054A1466556657671667F0BD014B99
:105A60009B681847B0200020000000D007B54840D0
:105A70004140484001E0C04607B54200120E03D045
:105A8000FF2A03D1420218D8C00DC0054A00120EE9
:105A900003D0FF2A03D14A020FD8C90DC90501223C
:105AA000414005D4414001D5814207BD884207BD30
:105AB0000143491801D0C043001807BD00B5FFF7E6
:105AC000DBFF01D0002000BD012000BD00B5FFF7C5
:105AD000D3FF01D9002000BD012000BD01231B061A
